{"abi":[{"type":"receive","stateMutability":"payable"},{"type":"function","name":"blueprintId","inputs":[],"outputs":[{"name":"","type":"uint64","internalType":"uint64"}],"stateMutability":"view"},{"type":"function","name":"blueprintOwner","inputs":[],"outputs":[{"name":"","type":"address","internalType":"address"}],"stateMutability":"view"},{"type":"function","name":"canJoin","inputs":[{"name":"","type":"uint64","internalType":"uint64"},{"name":"","type":"address","internalType":"address"}],"outputs":[{"name":"","type":"bool","internalType":"bool"}],"stateMutability":"view"},{"type":"function","name":"canLeave","inputs":[{"name":"","type":"uint64","internalType":"uint64"},{"name":"","type":"address","internalType":"address"}],"outputs":[{"name":"","type":"bool","internalType":"bool"}],"stateMutability":"view"},{"type":"function","name":"configureModel","inputs":[{"name":"model","type":"string","internalType":"string"},{"name":"pricePerImage","type":"uint64","internalType":"uint64"},{"name":"minGpuVramMib","type":"uint32","internalType":"uint32"}],"outputs":[],"stateMutability":"nonpayable"},{"type":"function","name":"getAggregationThreshold","inputs":[{"name":"","type":"uint64","internalType":"uint64"},{"name":"","type":"uint8","internalType":"uint8"}],"outputs":[{"name":"","type":"uint16","internalType":"uint16"},{"name":"","type":"uint8","internalType":"uint8"}],"stateMutability":"view"},{"type":"function","name":"getExitConfig","inputs":[{"name":"","type":"uint64","internalType":"uint64"}],"outputs":[{"name":"useDefault","type":"bool","internalType":"bool"},{"name":"minCommitmentDuration","type":"uint64","internalType":"uint64"},{"name":"exitQueueDuration","type":"uint64","internalType":"uint64"},{"name":"forceExitAllowed","type":"bool","internalType":"bool"}],"stateMutability":"view"},{"type":"function","name":"getHeartbeatInterval","inputs":[{"name":"","type":"uint64","internalType":"uint64"}],"outputs":[{"name":"useDefault","type":"bool","internalType":"bool"},{"name":"interval","type":"uint64","internalType":"uint64"}],"stateMutability":"view"},{"type":"function","name":"getHeartbeatThreshold","inputs":[{"name":"","type":"uint64","internalType":"uint64"}],"outputs":[{"name":"useDefault","type":"bool","internalType":"bool"},{"name":"threshold","type":"uint8","internalType":"uint8"}],"stateMutability":"view"},{"type":"function","name":"getMinOperatorStake","inputs":[],"outputs":[{"name":"useDefault","type":"bool","internalType":"bool"},{"name":"minStake","type":"uint256","internalType":"uint256"}],"stateMutability":"view"},{"type":"function","name":"getNonPaymentTerminationPolicy","inputs":[{"name":"","type":"uint64","internalType":"uint64"}],"outputs":[{"name":"useDefault","type":"bool","internalType":"bool"},{"name":"graceIntervals","type":"uint64","internalType":"uint64"}],"stateMutability":"view"},{"type":"function","name":"getOperatorPricing","inputs":[{"name":"op","type":"address","internalType":"address"}],"outputs":[{"name":"pricePerImage","type":"uint64","internalType":"uint64"},{"name":"endpoint","type":"string","internalType":"string"}],"stateMutability":"view"},{"type":"function","name":"getOperators","inputs":[],"outputs":[{"name":"","type":"address[]","internalType":"address[]"}],"stateMutability":"view"},{"type":"function","name":"getRequiredResultCount","inputs":[{"name":"","type":"uint64","internalType":"uint64"},{"name":"","type":"uint8","internalType":"uint8"}],"outputs":[{"name":"","type":"uint32","internalType":"uint32"}],"stateMutability":"view"},{"type":"function","name":"getSlashingWindow","inputs":[{"name":"","type":"uint64","internalType":"uint64"}],"outputs":[{"name":"useDefault","type":"bool","internalType":"bool"},{"name":"window","type":"uint64","internalType":"uint64"}],"stateMutability":"view"},{"type":"function","name":"isOperatorActive","inputs":[{"name":"op","type":"address","internalType":"address"}],"outputs":[{"name":"","type":"bool","internalType":"bool"}],"stateMutability":"view"},{"type":"function","name":"modelConfigs","inputs":[{"name":"","type":"bytes32","internalType":"bytes32"}],"outputs":[{"name":"pricePerImage","type":"uint64","internalType":"uint64"},{"name":"minGpuVramMib","type":"uint32","internalType":"uint32"},{"name":"enabled","type":"bool","internalType":"bool"}],"stateMutability":"view"},{"type":"function","name":"onAggregatedResult","inputs":[{"name":"","type":"uint64","internalType":"uint64"},{"name":"","type":"uint8","internalType":"uint8"},{"name":"","type":"uint64","internalType":"uint64"},{"name":"","type":"bytes","internalType":"bytes"},{"name":"","type":"uint256","internalType":"uint256"},{"name":"","type":"uint256[2]","internalType":"uint256[2]"},{"name":"","type":"uint256[4]","internalType":"uint256[4]"}],"outputs":[],"stateMutability":"nonpayable"},{"type":"function","name":"onApprove","inputs":[{"name":"","type":"address","internalType":"address"},{"name":"","type":"uint64","internalType":"uint64"},{"name":"","type":"uint8","internalType":"uint8"}],"outputs":[],"stateMutability":"payable"},{"type":"function","name":"onBlueprintCreated","inputs":[{"name":"_blueprintId","type":"uint64","internalType":"uint64"},{"name":"owner","type":"address","internalType":"address"},{"name":"_tangleCore","type":"address","internalType":"address"}],"outputs":[],"stateMutability":"nonpayable"},{"type":"function","name":"onExitCanceled","inputs":[{"name":"","type":"uint64","internalType":"uint64"},{"name":"","type":"address","internalType":"address"}],"outputs":[],"stateMutability":"nonpayable"},{"type":"function","name":"onExitScheduled","inputs":[{"name":"","type":"uint64","internalType":"uint64"},{"name":"","type":"address","internalType":"address"},{"name":"","type":"uint64","internalType":"uint64"}],"outputs":[],"stateMutability":"nonpayable"},{"type":"function","name":"onJobCall","inputs":[{"name":"","type":"uint64","internalType":"uint64"},{"name":"","type":"uint8","internalType":"uint8"},{"name":"","type":"uint64","internalType":"uint64"},{"name":"","type":"bytes","internalType":"bytes"}],"outputs":[],"stateMutability":"payable"},{"type":"function","name":"onJobResult","inputs":[{"name":"","type":"uint64","internalType":"uint64"},{"name":"","type":"uint8","internalType":"uint8"},{"name":"","type":"uint64","internalType":"uint64"},{"name":"","type":"address","internalType":"address"},{"name":"","type":"bytes","internalType":"bytes"},{"name":"","type":"bytes","internalType":"bytes"}],"outputs":[],"stateMutability":"payable"},{"type":"function","name":"onOperatorJoined","inputs":[{"name":"","type":"uint64","internalType":"uint64"},{"name":"","type":"address","internalType":"address"},{"name":"","type":"uint16","internalType":"uint16"}],"outputs":[],"stateMutability":"nonpayable"},{"type":"function","name":"onOperatorLeft","inputs":[{"name":"","type":"uint64","internalType":"uint64"},{"name":"","type":"address","internalType":"address"}],"outputs":[],"stateMutability":"nonpayable"},{"type":"function","name":"onRegister","inputs":[{"name":"operator","type":"address","internalType":"address"},{"name":"registrationInputs","type":"bytes","internalType":"bytes"}],"outputs":[],"stateMutability":"payable"},{"type":"function","name":"onReject","inputs":[{"name":"","type":"address","internalType":"address"},{"name":"","type":"uint64","internalType":"uint64"}],"outputs":[],"stateMutability":"nonpayable"},{"type":"function","name":"onRequest","inputs":[{"name":"","type":"uint64","internalType":"uint64"},{"name":"","type":"address","internalType":"address"},{"name":"","type":"address[]","internalType":"address[]"},{"name":"","type":"bytes","internalType":"bytes"},{"name":"","type":"uint64","internalType":"uint64"},{"name":"","type":"address","internalType":"address"},{"name":"","type":"uint256","internalType":"uint256"}],"outputs":[],"stateMutability":"payable"},{"type":"function","name":"onServiceInitialized","inputs":[{"name":"","type":"uint64","internalType":"uint64"},{"name":"","type":"uint64","internalType":"uint64"},{"name":"","type":"uint64","internalType":"uint64"},{"name":"","type":"address","internalType":"address"},{"name":"","type":"address[]","internalType":"address[]"},{"name":"","type":"uint64","internalType":"uint64"}],"outputs":[],"stateMutability":"nonpayable"},{"type":"function","name":"onServiceTermination","inputs":[{"name":"","type":"uint64","internalType":"uint64"},{"name":"","type":"address","internalType":"address"}],"outputs":[],"stateMutability":"nonpayable"},{"type":"function","name":"onSlash","inputs":[{"name":"","type":"uint64","internalType":"uint64"},{"name":"","type":"bytes","internalType":"bytes"},{"name":"","type":"uint8","internalType":"uint8"}],"outputs":[],"stateMutability":"nonpayable"},{"type":"function","name":"onUnappliedSlash","inputs":[{"name":"","type":"uint64","internalType":"uint64"},{"name":"","type":"bytes","internalType":"bytes"},{"name":"","type":"uint8","internalType":"uint8"}],"outputs":[],"stateMutability":"nonpayable"},{"type":"function","name":"onUnregister","inputs":[{"name":"operator","type":"address","internalType":"address"}],"outputs":[],"stateMutability":"nonpayable"},{"type":"function","name":"onUpdatePreferences","inputs":[{"name":"operator","type":"address","internalType":"address"},{"name":"p","type":"bytes","internalType":"bytes"}],"outputs":[],"stateMutability":"payable"},{"type":"function","name":"operatorCaps","inputs":[{"name":"","type":"address","internalType":"address"}],"outputs":[{"name":"model","type":"string","internalType":"string"},{"name":"gpuCount","type":"uint32","internalType":"uint32"},{"name":"totalVramMib","type":"uint32","internalType":"uint32"},{"name":"gpuModel","type":"string","internalType":"string"},{"name":"endpoint","type":"string","internalType":"string"},{"name":"active","type":"bool","internalType":"bool"}],"stateMutability":"view"},{"type":"function","name":"queryDeveloperPaymentAddress","inputs":[{"name":"","type":"uint64","internalType":"uint64"}],"outputs":[{"name":"","type":"address","internalType":"address payable"}],"stateMutability":"view"},{"type":"function","name":"queryDisputeOrigin","inputs":[{"name":"","type":"uint64","internalType":"uint64"}],"outputs":[{"name":"","type":"address","internalType":"address"}],"stateMutability":"view"},{"type":"function","name":"queryIsPaymentAssetAllowed","inputs":[{"name":"serviceId","type":"uint64","internalType":"uint64"},{"name":"asset","type":"address","internalType":"address"}],"outputs":[{"name":"","type":"bool","internalType":"bool"}],"stateMutability":"view"},{"type":"function","name":"querySlashingOrigin","inputs":[{"name":"","type":"uint64","internalType":"uint64"}],"outputs":[{"name":"","type":"address","internalType":"address"}],"stateMutability":"view"},{"type":"function","name":"requiresAggregation","inputs":[{"name":"","type":"uint64","internalType":"uint64"},{"name":"","type":"uint8","internalType":"uint8"}],"outputs":[{"name":"","type":"bool","internalType":"bool"}],"stateMutability":"view"},{"type":"function","name":"tangleCore","inputs":[],"outputs":[{"name":"","type":"address","internalType":"address"}],"stateMutability":"view"},{"type":"error","name":"AlreadyInitialized","inputs":[]},{"type":"error","name":"OnlyBlueprintOwnerAllowed","inputs":[{"name":"caller","type":"address","internalType":"address"},{"name":"owner","type":"address","internalType":"address"}]},{"type":"error","name":"OnlyTangleAllowed","inputs":[{"name":"caller","type":"address","internalType":"address"},{"name":"tangle","type":"address","internalType":"address"}]}],"bytecode":{"object":"0x60808060405234601557611759908161001a8239f35b5f80fdfe6080604052600436101561001a575b3615610018575f80fd5b005b5f3560e01c806268080b146107bb57806308179f351461128f5780630881898f1461079c5780630b6535d7146111f457806314b4df4c146107b6578063151a4576146111b0578063158bb2eb1461114957806319ed5bb21461111c5780631a74f8ae1461101c57806325fcc64e14610fe857806327a099d814610f205780633fdadfcc146107bb5780634299b96014610ed157806348b9290114610dcd5780634c443e0414610d9f5780635440662c1461067457806354dce6c214610d7f5780635a936dc614610d5857806367793cc6146107c057806371e8e85d146107bb57806374ceeb55146107b65780637e14b9191461079c57806382a1ece41461073e57806392cbb78e14610714578063965d231b146106745780639838caa3146106ce5780639aa26a9214610696578063a24e8a9014610674578063b159eb341461064e578063b47242e8146103e1578063c28cd812146105dd578063c40c80d114610563578063c9cd4a1814610541578063cb110dc114610487578063d2672ed414610450578063e0559c631461041c578063e390fcdb146103e6578063e518de76146103e1578063eb473533146103a1578063f58e20661461023f578063f8407662146102175763fe0b15e70361000e5734610213575f3660031901126102135760206001600160401b035f5460a01c16604051908152f35b5f80fd5b34610213575f366003190112610213576001546040516001600160a01b039091168152602090f35b6102483661147e565b6102506116f7565b81016020828203126102135781356001600160401b038111610213576102769201611687565b9060018060a01b03165f526003602052600360405f200181516001600160401b03811161038d576102a78254611513565b601f8111610348575b50602092601f82116001146102ec57928192935f926102e1575b50505f19600383901b1c191660019190911b179055005b0151905083806102ca565b601f19821693835f52805f20915f5b8681106103305750836001959610610318575b505050811b019055005b01515f1960f88460031b161c1916905583808061030e565b919260206001819286850151815501940192016102fb565b825f5260205f20601f830160051c81019160208410610383575b601f0160051c01905b81811061037857506102b0565b5f815560010161036b565b9091508190610362565b634e487b7160e01b5f52604160045260245ffd5b34610213576020366003190112610213576001600160a01b036103c26113e3565b165f526003602052602060ff600460405f200154166040519015158152f35b6114f1565b346102135760403660031901126102135760206104126104046112c1565b61040c6113cd565b906116a5565b6040519015158152f35b34610213576060366003190112610213576104356112c1565b5061043e6113cd565b506104476112d7565b506100186116f7565b34610213576020366003190112610213576104696112c1565b506080604051600181525f60208201525f60408201525f6060820152f35b34610213576020366003190112610213576001600160a01b036104a86113e3565b165f52600360205261050860405f206104c0816115a2565b906105356001820154916105276104d9600283016115a2565b9360ff60046104ea600386016115a2565b940154169463ffffffff60405198899860c08a5260c08a0190611449565b9281811660208a015260201c1660408801528682036060880152611449565b908482036080860152611449565b90151560a08301520390f35b346102135760403660031901126102135761055a6113e3565b506104476112ed565b60c0366003190112610213576105776112c1565b5061058061135c565b506105896112d7565b506105926113f9565b506084356001600160401b038111610213576105b290369060040161132f565b505060a4356001600160401b038111610213576105d390369060040161132f565b50506100186116f7565b60e0366003190112610213576105f16112c1565b506105fa6113cd565b506044356001600160401b0381116102135761061a9036906004016114c1565b50506064356001600160401b0381116102135761063b90369060040161132f565b5050610645611319565b5061044761140f565b6060366003190112610213576106626113e3565b5061066b6112ed565b5061044761136c565b346102135760403660031901126102135761068d6112c1565b506104476113cd565b34610213576060366003190112610213576106af6112c1565b506106b86113cd565b5060443561ffff811603610213576100186116f7565b6080366003190112610213576106e26112c1565b506106eb61135c565b506106f46112d7565b506064356001600160401b038111610213576105d390369060040161132f565b346102135760203660031901126102135761072d6112c1565b5060408051600181525f6020820152f35b346102135760c0366003190112610213576107576112c1565b506107606112ed565b506107696112d7565b506107726113f9565b506084356001600160401b038111610213576107929036906004016114c1565b5050610447611303565b34610213576107aa3661137c565b505050506100186116f7565b611425565b610714565b6107c93661147e565b6107d49291926116f7565b820160a0838203126102135782356001600160401b03811161021357816107fc918501611687565b906108096020850161146d565b906108166040860161146d565b9460608101356001600160401b0381116102135782610836918301611687565b9160808201356001600160401b038111610213576108549201611687565b91835160208501205f52600460205260405f206040519061087482611566565b54906001600160401b038216815260ff602082019263ffffffff8160401c16845260601c16159060408215910152610d1d575163ffffffff96871696168610610ce457604051936108c48561154b565b845263ffffffff602085019116815260408401958652606084019182526080840192835260a08401946001865260018060a01b031695865f52600360205260405f2094518051906001600160401b03821161038d5781906109258854611513565b601f8111610c94575b50602090601f8311600114610c31575f92610c26575b50508160011b915f199060031b1c19161785555b63ffffffff6001860192511667ffffffff000000008354925160201b16916001600160401b031916171790556002830190518051906001600160401b03821161038d5781906109a78454611513565b601f8111610bd6575b50602090601f8311600114610b73575f92610b68575b50508160011b915f199060031b1c19161790555b51805160038301916001600160401b03821161038d576109fa8354611513565b601f8111610b23575b50602090601f8311600114610abc576004949392915f9183610ab1575b50508160011b915f199060031b1c19161790555b019051151560ff801983541691161790556005546801000000000000000081101561038d576001810180600555811015610a9d577f036b6384b5eca791c62761152d0c79bb0604c104a5fb6f4eb0703f3154bb3db00180546001600160a01b0319169091179055005b634e487b7160e01b5f52603260045260245ffd5b015190508780610a20565b90601f19831691845f52815f20925f5b818110610b0b575091600193918560049897969410610af3575b505050811b019055610a34565b01515f1960f88460031b161c19169055878080610ae6565b92936020600181928786015181550195019301610acc565b835f5260205f20601f840160051c81019160208510610b5e575b601f0160051c01905b818110610b535750610a03565b5f8155600101610b46565b9091508190610b3d565b0151905087806109c6565b5f8581528281209350601f198516905b818110610bbe5750908460019594939210610ba6575b505050811b0190556109da565b01515f1960f88460031b161c19169055878080610b99565b92936020600181928786015181550195019301610b83565b909150835f5260205f20601f840160051c81019160208510610c1c575b90601f859493920160051c01905b818110610c0e57506109b0565b5f8155849350600101610c01565b9091508190610bf3565b015190508980610944565b5f8981528281209350601f198516905b818110610c7c5750908460019594939210610c64575b505050811b018555610958565b01515f1960f88460031b161c19169055898080610c57565b92936020600181928786015181550195019301610c41565b909150875f5260205f20601f840160051c81019160208510610cda575b90601f859493920160051c01905b818110610ccc575061092e565b5f8155849350600101610cbf565b9091508190610cb1565b60405162461bcd60e51b8152602060048201526011602482015270496e73756666696369656e74205652414d60781b6044820152606490fd5b60405162461bcd60e51b8152602060048201526013602482015272135bd9195b081b9bdd081cdd5c1c1bdc9d1959606a1b6044820152606490fd5b34610213575f366003190112610213575f546040516001600160a01b039091168152602090f35b34610213575f3660031901126102135760408051600181525f6020820152f35b3461021357604036600319011261021357610db86112c1565b50610dc161135c565b50602060405160018152f35b34610213576060366003190112610213576004356001600160401b03811161021357610dfd90369060040161132f565b90610e066112ed565b916044359163ffffffff8316809303610213576001546001600160a01b031633819003610ebb5750610e61906001600160401b0360405195610e4787611566565b168552602085019384526040850192600184523691611642565b602081519101205f5260046020526001600160401b0360405f209351166bffffffff00000000000000008454935160401b169160ff60601b9051151560601b16926cffffffffffffffffffffffffff191617171790555f80f35b630b3dddb760e01b5f523360045260245260445ffd5b34610213576020366003190112610213576004355f526004602052606060405f205460ff604051916001600160401b038116835263ffffffff8160401c166020840152831c1615156040820152f35b34610213575f366003190112610213576040518060206005549283815201809260055f527f036b6384b5eca791c62761152d0c79bb0604c104a5fb6f4eb0703f3154bb3db0905f5b818110610fc95750505081610f7e910382611581565b604051918291602083019060208452518091526040830191905f5b818110610fa7575050500390f35b82516001600160a01b0316845285945060209384019390920191600101610f99565b82546001600160a01b0316845260209093019260019283019201610f68565b34610213576040366003190112610213576110016112c1565b5061100a61135c565b5060408051611a2c81525f6020820152f35b34610213576020366003190112610213576001600160a01b0361103d6113e3565b165f52600360205260405f206040516110558161154b565b61105e826115a2565b815263ffffffff6001830154818116602084015260201c166040820152611087600283016115a2565b606082015260ff600461109c600385016115a2565b9360808401948552015416151560a082015251602081519101205f52600460205260405f2090604051916110cf83611566565b5491604060ff6001600160401b0385169485845263ffffffff81841c16602085015260601c16151591015251906111186040519283928352604060208401526040830190611449565b0390f35b34610213576040366003190112610213576111356112c1565b5061113e61135c565b5060206040515f8152f35b3461021357610160366003190112610213576111636112c1565b5061116c61135c565b506111756112d7565b506064356001600160401b0381116102135761119590369060040161132f565b50503660e411610213573661016411610213576100186116f7565b34610213576020366003190112610213576111c96113e3565b6111d16116f7565b6001600160a01b03165f908152600360205260409020600401805460ff19169055005b346102135760603660031901126102135761120d6112c1565b6112156113cd565b6044356001600160a01b0381169290839003610213575f54916001600160a01b03831661128157600180546001600160a01b0319166001600160a01b03929092169190911790556001600160e01b031990911660a09190911b67ffffffffffffffff60a01b1617175f55005b62dc149f60e41b5f5260045ffd5b34610213576020366003190112610213576112a86112c1565b506001546040516001600160a01b039091168152602090f35b600435906001600160401b038216820361021357565b604435906001600160401b038216820361021357565b602435906001600160401b038216820361021357565b60a435906001600160401b038216820361021357565b608435906001600160401b038216820361021357565b9181601f84011215610213578235916001600160401b038311610213576020838186019501011161021357565b6024359060ff8216820361021357565b6044359060ff8216820361021357565b906060600319830112610213576004356001600160401b03811681036102135791602435906001600160401b038211610213576113bb9160040161132f565b909160443560ff811681036102135790565b602435906001600160a01b038216820361021357565b600435906001600160a01b038216820361021357565b606435906001600160a01b038216820361021357565b60a435906001600160a01b038216820361021357565b346102135760203660031901126102135761143e6112c1565b506020604051308152f35b805180835260209291819084018484015e5f828201840152601f01601f1916010190565b359063ffffffff8216820361021357565b906040600319830112610213576004356001600160a01b03811681036102135791602435906001600160401b038211610213576114bd9160040161132f565b9091565b9181601f84011215610213578235916001600160401b038311610213576020808501948460051b01011161021357565b346102135760403660031901126102135761150a6112c1565b50610dc16113cd565b90600182811c92168015611541575b602083101461152d57565b634e487b7160e01b5f52602260045260245ffd5b91607f1691611522565b60c081019081106001600160401b0382111761038d57604052565b606081019081106001600160401b0382111761038d57604052565b90601f801991011681019081106001600160401b0382111761038d57604052565b9060405191825f8254926115b584611513565b808452936001811690811561162057506001146115dc575b506115da92500383611581565b565b90505f9291925260205f20905f915b8183106116045750509060206115da928201015f6115cd565b60209193508060019154838589010152019101909184926115eb565b9050602092506115da94915060ff191682840152151560051b8201015f6115cd565b9291926001600160401b03821161038d576040519161166b601f8201601f191660200184611581565b829481845281830111610213578281602093845f960137010152565b9080601f83011215610213578160206116a293359101611642565b90565b6001600160a01b039091169081156116f0576001600160401b0316805f52600260205260405f2054156116f0575f526002602052600160405f2001905f5260205260405f2054151590565b5050600190565b5f546001600160a01b03163381900361170d5750565b63032dd5e360e11b5f523360045260245260445ffdfea264697066735822122027229b9f3ff0f6877d3a13720aa2117230af29a1c50767096d95974966eb2b0364736f6c634300081a0033","linkReferences":{}},"methodIdentifiers":{"blueprintId()":"fe0b15e7","blueprintOwner()":"f8407662","canJoin(uint64,address)":"b47242e8","canLeave(uint64,address)":"e518de76","configureModel(string,uint64,uint32)":"48b92901","getAggregationThreshold(uint64,uint8)":"25fcc64e","getExitConfig(uint64)":"d2672ed4","getHeartbeatInterval(uint64)":"0068080b","getHeartbeatThreshold(uint64)":"92cbb78e","getMinOperatorStake()":"54dce6c2","getNonPaymentTerminationPolicy(uint64)":"71e8e85d","getOperatorPricing(address)":"1a74f8ae","getOperators()":"27a099d8","getRequiredResultCount(uint64,uint8)":"4c443e04","getSlashingWindow(uint64)":"3fdadfcc","isOperatorActive(address)":"eb473533","modelConfigs(bytes32)":"4299b960","onAggregatedResult(uint64,uint8,uint64,bytes,uint256,uint256[2],uint256[4])":"158bb2eb","onApprove(address,uint64,uint8)":"b159eb34","onBlueprintCreated(uint64,address,address)":"0b6535d7","onExitCanceled(uint64,address)":"5440662c","onExitScheduled(uint64,address,uint64)":"e0559c63","onJobCall(uint64,uint8,uint64,bytes)":"9838caa3","onJobResult(uint64,uint8,uint64,address,bytes,bytes)":"c40c80d1","onOperatorJoined(uint64,address,uint16)":"9aa26a92","onOperatorLeft(uint64,address)":"965d231b","onRegister(address,bytes)":"67793cc6","onReject(address,uint64)":"c9cd4a18","onRequest(uint64,address,address[],bytes,uint64,address,uint256)":"c28cd812","onServiceInitialized(uint64,uint64,uint64,address,address[],uint64)":"82a1ece4","onServiceTermination(uint64,address)":"a24e8a90","onSlash(uint64,bytes,uint8)":"7e14b919","onUnappliedSlash(uint64,bytes,uint8)":"0881898f","onUnregister(address)":"151a4576","onUpdatePreferences(address,bytes)":"f58e2066","operatorCaps(address)":"cb110dc1","queryDeveloperPaymentAddress(uint64)":"08179f35","queryDisputeOrigin(uint64)":"14b4df4c","queryIsPaymentAssetAllowed(uint64,address)":"e390fcdb","querySlashingOrigin(uint64)":"74ceeb55","requiresAggregation(uint64,uint8)":"19ed5bb2","tangleCore()":"5a936dc6"},"id":26}